:1009F7000D0A204448543131206C6F6767696E6770
:100A070020746F20454550524F4D200D0A000D0AA6
:100A1700205374617274206661696C0D0A000D0AB7
:100A2700204448543131204572726F7221200D0ADB
:100A3700000D0A20636865636B73756D20466169F5
:100A47006C2121200D0A0054656D70203D203078FF
:100A5700002028002043290D0A0030313233343575
:0A0A67003637383941424344454612
:080B0800D2A0D2A17F057E00FE
:100B1000E4FDFCC3ED9FEC9E5015E4FBFA0BBB001B
:0F0B2000010AEB64014A70F50DBD00010C80E481
:010B2F0022A3
:100B7B00E4FDFCC3ED9FEC9E5015E4FBFA0BBB00B0
:0F0B8B00010ABA04F8BBFBF50DBD00010C80E4B4
:010B9A002238
:0B0C3500120B08C2A0120B10C2A1227B
:080C4000C2A0120B0AD2A0228F
:050A7100120C357FA00E
:020A76008F10DF
:100A7800E4F9E51030E704D2A08002C2A0120B0A04
:100A8800C2A1120B10E51025E0F51009B908E31210
:0E0A98000B08A2A0B39200C2A1120B10A20084
:010AA600222D
:100AA700E4F50FD2A0F9120B0AE50F25E0FFA2A08B
:100AB700E4334FF50FC2A17F05120B1009B908E601
:100AC700300004C2A08002D2A0120B0AC2A1D2A099
:020AD700AF0F5F
:010AD90022FA
:0C0C1D00759850758920758DFDD28E22CF
:080C48008F993099FDC2992239
:060B9B008B0D8A0E890F8C
:100BA100AB0DAA0EA90F8510827583001208F6FFFE
:090BB1006007120C48051080E7F2
:010BBA002218
:020ADA008F0D7E
:100ADC00780E7C007D007BFF7A0A79617E007F10A6
:100AEC001208D0E50DC4540F240EF8E6FF120C4882
:0C0AFC00E50D540F240EF8E6FF020C4834
:100B57008E0D8F0E8D0F120A71E50DFF120A76AFFB
:100B67000E120A76AF0F120A76120C40120A715053
:040B7700FB020C4031
:040B30008E0D8F0E89
:100B3400120A71E50DFF120A76AF0E120A76120C34
:100B4400357FA1120A76C200120AA7A907120C4027
:020B5400AF01EF
:010B5600227C
:100BBB00C2A27F147E00120B7BD2A27F1E120B10DF
:0D0BCB0020A20830A2FD20A2FDD322C322EB
:100BD8007F287E00120B1020A2107F50120B1012DB
:0C0BE8000B1030A205120B10D322C32208
:0D0C100030A2FD7F237E00120B10A2A22255
:100BF400E4F50DF9E50D25E0F50D120C1050034355
:0B0C04000D0120A2FD09B908EBAF0DA7
:010C0F0022C2
:10092300E4F508F509D2A0D2A1120C1D7BFF7A09C8
:1009330079F7120B9B7FB07E04120B7B120BBB402B
:100943000F7BFF7A0A7915120B9B7FE87E03803EAB
:10095300120BBB120BD8400F7BFF7A0A7925120BBF
:100963009B7FD07E078027120BF48F0B120BF412A0
:100973000BF48F0A120BF4120BF4E50B250A6F60CC
:10098300127BFF7A0A7938120B9B7FD07E07120BFA
:100993007B80BDAD0AAF09AE08120B570509E50907
:1009A30070020508C3E50894804005E4F508F509DD
:1009B3007BFF7A0A794E120B9BAF09AE08120B30FC
:1009C3008F0C120ADA7BFF7A0A7958120B9BE50A1D
:1009D30075F00A842430FF120C48E50A75F00A8486
:1009E300E5F02430FF120C487BFF7A0A795B120B87
:0409F3009B02095307
:03000000020C29C6
:0C0C2900787FE4F6D8FD758120020923D5
:10080000E709F608DFFA8046E709F208DFFA803EDA
:1008100088828C83E709F0A3DFFA8032E309F608C7
:10082000DFFA8078E309F208DFFA807088828C832F
:10083000E309F0A3DFFA806489828A83E0A3F608E3
:10084000DFFA805889828A83E0A3F208DFFA804CBD
:1008500080D280FA80C680D4806980F28033801094
:1008600080A680EA809A80A880DA80E280CA8033FD
:1008700089828A83ECFAE493A3C8C582C8CCC58375
:10088000CCF0A3C8C582C8CCC583CCDFE9DEE78045
:100890000D89828A83E493A3F608DFF9ECFAA9F0C4
:1008A000EDFB2289828A83ECFAE0A3C8C582C8CC1A
:1008B000C583CCF0A3C8C582C8CCC583CCDFEADE33
:1008C000E880DB89828A83E493A3F208DFF980CC95
:1008D00088F0EF60010E4E60C388F0ED2402B4048E
:1008E0000050B9F582EB2402B4040050AF23234535
:0608F00082239008507302
:1008F600BB010CE58229F582E5833AF583E02250B7
:1009060006E92582F8E622BBFE06E92582F8E22200
:0D091600E58229F582E5833AF583E493221A
:00000001FF
