:100BD10074656D0054656D70657261747572652020
:100BE10069732E2E004F4B0D0A0068756D00487514
:100BF1006D69646974792069732E2E0074656D2F97
:100C010068756D0054656D2F48756D2069732E2EC2
:100C1100004572726F7220436D642E2E00543A00AB
:0D0C2100483A00444854206661696C210087
:030D9C000108004B
:070C2E00120CC77FE87E03F2
:100C3500E4FDFCC3ED9FEC9E5015E4FBFA0BBB00F5
:0F0C4500010ABA04F8BBFBF50DBD00010C80E4F9
:010C5400227D
:100C9E00E4FDFCC3ED9FEC9E5015E4FBFA0BBB008C
:0F0CAE00010AEB64014A70F50DBD00010C80E4F2
:010CBD002214
:0D0D3300C2A1E954F0FFE5B0540F4FF5B038
:0C0D4000D2A27F027E00120C9EC2A222F2
:070CDD007F01120CE47F808F
:100CE400A907C2A0120D33E9C454F0FFE5B0540FB4
:060CF4004FF5B0020D40B7
:090CBE0075F00A84E5F02430FF12
:100CC700A907D2A0120D33E9C454F0FFE5B0540FC1
:060CD7004FF5B0020D40D4
:100C55008B1F8A208921AB1FAA20A92112080060B9
:100C6500130521E5217002052014F9120800FF1271
:050C75000CC780E22223
:100D65007F28120CE47F0C120CE47F06120CE47F42
:040D750001020CE487
:0C0D8800758920759850758DFDD28E2263
:080D94008F993099FDC29922EC
:060C7A008B1A8A1B891C85
:100C8000E4FDFCAB1AAA1BA91C8D828C83120819E7
:0D0C9000FF600A120D940DBD00010C80E6FE
:010C9D002234
:030023000209E1EE
:1009E100C0E0C0F0C083C082C0D075D000C000C0DC
:0D09F10001C002C003C004C005C006C0075D
:1009FE00209803020A9D859919C298E519640D7015
:100A0E007A74092508F8760078097C007D007BFF52
:100A1E007A0B79D11209C4EF700B120CDD7BFF7AC1
:100A2E000B79D5804578097C007D007BFF7A0B79A8
:100A3E00EB1209C4EF700B120CDD7BFF7A0B79EF12
:100A4E00802878097C007D007BFF7A0B79FD1209E6
:100A5E00C4EF7F01700B120CDF7BFF7A0C790580DF
:100A6E0009120CDF7BFF7A0C7912120C55120C3125
:100A7E007BFF7A0B79E6120C7A8011AF08050874A9
:0F0A8E00092FF8A619E508C3940F400375080057
:100A9D00D007D006D005D004D003D002D001D000AD
:0B0AAD00D0D0D082D083D0F0D0E03257
:100CFA00C2907F147E00120C35D2907F1E120C9E79
:0D0D0A002090083090FD2090FDD322C322E0
:100D4C007F287E00120C9E20900D7F50120C9E303E
:090D5C009005120C9ED322C32263
:0F0D79002090097F237E00120C9E80F4A290220E
:100D1700E4F51FF9E51F25E0F51F120D7950034390
:0B0D27001F012090FD09B908EBAF1F71
:010D3200229E
:100AB800120D88D2AFD2AC120D65120CFA50681222
:100AC8000D4C5063120D178F1D120D17120D178F35
:100AD8001E120D17120D17120CDD120C317BFF7A46
:100AE8000C791E120C55E51E75F00A842430FF128D
:100AF8000CC7E51E120CBE7FDF120CC77F43120C19
:100B08002E7FC0120CE47BFF7A0C7921120C55E57C
:100B18001D75F00A842430FF120CC7E51D120CBEA7
:100B28007F25120C2E800C120CDD7BFF7A0C7924A9
:0D0B3800120C557FD07E07120C35020AC248
:03000000020B45AB
:0C0B4500787FE4F6D8FD758121020B8C4E
:10080000BB010689828A83E0225002E722BBFE02F6
:09081000E32289828A83E4932229
:10081900BB010CE58229F582E5833AF583E0225094
:1008290006E92582F8E622BBFE06E92582F8E222DE
:0D083900E58229F582E5833AF583E49322F8
:10084600E3F5F009E208B5F06D606B80F3E3F5F0CF
:1008560009E608B5F060605E80F387F009E608B542
:10086600F054605280F487F009E208B5F04860461B
:1008760080F488828C8387F009E0A3B5F03860366F
:1008860080F488828C8387F009E493A3B5F027600F
:100896002580F388828C83E3F5F009E0A3B5F01692
:1008A600601480F388828C83E3F5F009E493A3B5A2
:1008B600F004600280F2020971808580E7808E80F4
:1008C600D2803C8015806C807E809B80B5808B803A
:1008D600A1804F8070803A02097D89828A83ECFA72
:1008E600E493F5F0A3C8C582C8CCC583CCE493A332
:1008F600C8C582C8CCC583CCB5F070606E80E1896E
:10090600828A83E493F5F0A3E208B5F05E605C802A
:10091600F289828A83E0F5F0A3E608B5F04D604BD4
:1009260080F389828A83E0F5F0A3E208B5F03C60A3
:100936003A80F389828A83E493F5F0A3E608B5F05A
:100946002A602880F2805389828A83ECFAE493F540
:10095600F0A3C8C582C8CCC583CCE0A3C8C582C8ED
:10096600CCC583CCB5F004600280E27FFFB5F0020F
:100976000F2240027F012289828A83ECFAE0F5F099
:10098600A3C8C582C8CCC583CCE0A3C8C582C8CCE1
:10099600C583CCB5F0D560D380E389828A83ECFA2F
:1009A600E0F5F0A3C8C582C8CCC583CCE493A3C840
:1009B600C582C8CCC583CCB5F0B160AF80E288F003
:1009C600ED2402B4040050A3F582EB2402B4040023
:0B09D600509923234582239008BF7333
:100B5100020AB8E493A3F8E493A34003F68001F2F8
:100B610008DFF48029E493A3F85407240CC8C333A5
:100B7100C4540F4420C8834004F456800146F6DF74
:100B8100E4800B0102040810204080900D9CE47E5B
:100B9100019360BCA3FF543F30E509541FFEE49369
:100BA100A360010ECF54C025E060A840B8E493A330
:100BB100FAE493A3F8E493A3C8C582C8CAC583CA5B
:100BC100F0A3C8C582C8CAC583CADFE9DEE780BE13
:010D9F000053
:00000001FF
