:1009F5004C4344204F4B0054656D703A0048756D6B
:100A0500203A00202053656E736F72204572726F15
:100A150072202000436865636B20776972696E6791
:040A2500212020006C
:100AEC00EF1FAC0670011E4C600700000000008078
:020AFC00EF22E7
:100AD400AB07AA06EB1BAE0270011A4E60097FE851
:080AE4007E03120AEC80ED22F2
:070B0A00D2910000C291220C
:070A29007E00120AD47F03D6
:100A3000EF139294EFC313139295EF1313543F13D4
:0E0A40009296EF131313541F139297020B0A92
:100A7300AE07300003C38001D39290EEC4540FFF3E
:100A8300120A30EE540FFF120A307F327E00020A40
:010A9300EC76
:050B1100D200020A738E
:050B1600C200020A7399
:1009C0007F14120A297F05120A297F647E00120A09
:1009D000EC7F03120A301F120A307F28120B117F9E
:1009E0000C120B117F06120B117F01120B117F02EB
:0509F0007E00020AD4A4
:100A4E008B0E8A0F8910AB0EAA0FA9101208006028
:100A5E00130510E5107002050F14F9120800FF12AD
:050A6E000B1680E222DE
:04096000AB07AA0631
:10096400E4F50DFC7D0A12082BED2430F50C7C0017
:100974007D0AAF03AE0212082BAA06AB077C007DEA
:100984000A12082BED2430F50B7C007D0AAF03AE70
:100994000212082B7C007D0A12082BED2430F50A84
:1009A400B4300DE50BB430047F0280067F01800271
:0C09B4007F00740A2FF9E4FAFB020A4EDF
:100AB500C2A07F147E00120AD4D2A07F1E7E00122F
:0F0AC5000AEC20A00830A0FD20A0FDD322C32200
:100A9400E4FDFB30A0FD7F237E00120AECED25E08F
:100AA400FD30A00343050120A0FD0BBB08E5AF0505
:010AB400221F
:0608FE008B0A8A0B890C35
:10090400120AB5400122120A948F10120A94A90700
:10091400120A948F11120A94AA07120A94AE01EED5
:10092400FDE5102DFDE433FCE5117583002DFDE597
:10093400833CFCEA7A002DFDEA3CFCEF6D7001EC8F
:100944006002C322AB0AAA0BA90CE511120819AB69
:0B0954000DAA0EA90FE510120819D320
:01095F002275
:100880001209C07F80120B117BFF7A0979F5120AD9
:100890004E750D00750E00750F097B007A00790802
:1008A0001208FE7F805034120B117BFF7A0979FC0D
:1008B000120A4EAF087E001209607F43120B167FAA
:1008C000C0120B117BFF7A0A7902120A4EAF097E21
:1008D000001209607F25120B16801A120B117BFF84
:1008E0007A0A7908120A4E7FC0120B117BFF7A0A2E
:0E08F0007919120A4E7FD07E07120AD4809327
:03000000020AFEF3
:0C0AFE00787FE4F6D8FD758120020880A6
:10080000BB010689828A83E0225002E722BBFE02F6
:09081000E32289828A83E4932229
:10081900BB010689828A83F0225002F722BBFE01BE
:02082900F322B8
:10082B00BC000BBE0029EF8DF084FFADF022E4CCB1
:10083B00F875F008EF2FFFEE33FEEC33FCEE9DEC7A
:10084B00984005FCEE9DFE0FD5F0E9E4CEFD22EDC0
:10085B00F8F5F0EE8420D21CFEADF075F008EF2F0A
:10086B00FFED33FD4007985006D5F0F222C398FDFB
:05087B000FD5F0EA2298
:00000001FF
