:0608C50001090201080018
:1008AE00758904758C06758A06D2AFD2A9D28C22B0
:03000B0002088C5C
:10088C00C0E0C0D00508E508C395095004D290809B
:10089C0002C290E508C394044003750800D0D0D080
:0208AC00E03238
:0708BE00C2901208AE80FE9B
:03000000020800F3
:0C080000787FE4F6D8FD758109020847F6
:10080C000208BEE493A3F8E493A34003F68001F23C
:10081C0008DFF48029E493A3F85407240CC8C333ED
:10082C00C4540F4420C8834004F456800146F6DFBC
:10083C00E4800B01020408102040809008C5E47E7F
:10084C00019360BCA3FF543F30E509541FFEE493B1
:10085C00A360010ECF54C025E060A840B8E493A378
:10086C00FAE493A3F8E493A3C8C582C8CAC583CAA3
:10087C00F0A3C8C582C8CAC583CADFE9DEE780BE5B
:0108CB00002C
:00000001FF
